{"contracts/Contract.sol":{"Contract":{"abi":[{"inputs":[],"stateMutability":"nonpayable","type":"constructor"},{"inputs":[],"name":"counter","outputs":[{"internalType":"uint256","name":"","type":"uint256"}],"stateMutability":"view","type":"function"},{"inputs":[],"name":"decrement","outputs":[],"stateMutability":"nonpayable","type":"function"},{"inputs":[],"name":"getCounter","outputs":[{"internalType":"uint256","name":"","type":"uint256"}],"stateMutability":"view","type":"function"},{"inputs":[],"name":"increment","outputs":[],"stateMutability":"nonpayable","type":"function"},{"inputs":[],"name":"owner","outputs":[{"internalType":"address","name":"","type":"address"}],"stateMutability":"view","type":"function"},{"inputs":[],"name":"reset","outputs":[],"stateMutability":"nonpayable","type":"function"}],"evm":{"bytecode":{"linkReferences":{},"object":"608060405234801561001057600080fd5b5060008055600180546001600160a01b03191633179055610241806100366000396000f3fe608060405234801561001057600080fd5b50600436106100625760003560e01c80632baeceb71461006757806361bc221a146100715780638ada066e1461008d5780638da5cb5b14610095578063d09de08a146100c0578063d826f88f146100c8575b600080fd5b61006f6100d0565b005b61007a60005481565b6040519081526020015b60405180910390f35b60005461007a565b6001546100a8906001600160a01b031681565b6040516001600160a01b039091168152602001610084565b61006f61013c565b61006f61014b565b60008054116101265760405162461bcd60e51b815260206004820152601960248201527f636f756e7465722063616e2774206265206e656761746976650000000000000060448201526064015b60405180910390fd5b600080549080610135836101db565b9190505550565b600080549080610135836101f2565b6001546001600160a01b031633146101bf5760405162461bcd60e51b815260206004820152603160248201527f4f6e6c792074686520636f6e74726163742773206f776e65722063616e2063616044820152703636103a3434b990333ab731ba34b7b71760791b606482015260840161011d565b60008055565b634e487b7160e01b600052601160045260246000fd5b6000816101ea576101ea6101c5565b506000190190565b600060018201610204576102046101c5565b506001019056fea2646970667358221220b774d4d6e2a0ce77b3aa4e89517dabb540c20402679b90951c49620b761a90e964736f6c63430008110033","opcodes":"PUSH1 0x80 PUSH1 0x40 MSTORE CALLVALUE DUP1 ISZERO PUSH2 0x10 JUMPI PUSH1 0x0 DUP1 REVERT JUMPDEST POP PUSH1 0x0 DUP1 SSTORE PUSH1 0x1 DUP1 SLOAD PUSH1 0x1 PUSH1 0x1 PUSH1 0xA0 SHL SUB NOT AND CALLER OR SWAP1 SSTORE PUSH2 0x241 DUP1 PUSH2 0x36 PUSH1 0x0 CODECOPY PUSH1 0x0 RETURN INVALID PUSH1 0x80 PUSH1 0x40 MSTORE CALLVALUE DUP1 ISZERO PUSH2 0x10 JUMPI PUSH1 0x0 DUP1 REVERT JUMPDEST POP PUSH1 0x4 CALLDATASIZE LT PUSH2 0x62 JUMPI PUSH1 0x0 CALLDATALOAD PUSH1 0xE0 SHR DUP1 PUSH4 0x2BAECEB7 EQ PUSH2 0x67 JUMPI DUP1 PUSH4 0x61BC221A EQ PUSH2 0x71 JUMPI DUP1 PUSH4 0x8ADA066E EQ PUSH2 0x8D JUMPI DUP1 PUSH4 0x8DA5CB5B EQ PUSH2 0x95 JUMPI DUP1 PUSH4 0xD09DE08A EQ PUSH2 0xC0 JUMPI DUP1 PUSH4 0xD826F88F EQ PUSH2 0xC8 JUMPI JUMPDEST PUSH1 0x0 DUP1 REVERT JUMPDEST PUSH2 0x6F PUSH2 0xD0 JUMP JUMPDEST STOP JUMPDEST PUSH2 0x7A PUSH1 0x0 SLOAD DUP2 JUMP JUMPDEST PUSH1 0x40 MLOAD SWAP1 DUP2 MSTORE PUSH1 0x20 ADD JUMPDEST PUSH1 0x40 MLOAD DUP1 SWAP2 SUB SWAP1 RETURN JUMPDEST PUSH1 0x0 SLOAD PUSH2 0x7A JUMP JUMPDEST PUSH1 0x1 SLOAD PUSH2 0xA8 SWAP1 PUSH1 0x1 PUSH1 0x1 PUSH1 0xA0 SHL SUB AND DUP2 JUMP JUMPDEST PUSH1 0x40 MLOAD PUSH1 0x1 PUSH1 0x1 PUSH1 0xA0 SHL SUB SWAP1 SWAP2 AND DUP2 MSTORE PUSH1 0x20 ADD PUSH2 0x84 JUMP JUMPDEST PUSH2 0x6F PUSH2 0x13C JUMP JUMPDEST PUSH2 0x6F PUSH2 0x14B JUMP JUMPDEST PUSH1 0x0 DUP1 SLOAD GT PUSH2 0x126 JUMPI PUSH1 0x40 MLOAD PUSH3 0x461BCD PUSH1 0xE5 SHL DUP2 MSTORE PUSH1 0x20 PUSH1 0x4 DUP3 ADD MSTORE PUSH1 0x19 PUSH1 0x24 DUP3 ADD MSTORE PUSH32 0x636F756E7465722063616E2774206265206E6567617469766500000000000000 PUSH1 0x44 DUP3 ADD MSTORE PUSH1 0x64 ADD JUMPDEST PUSH1 0x40 MLOAD DUP1 SWAP2 SUB SWAP1 REVERT JUMPDEST PUSH1 0x0 DUP1 SLOAD SWAP1 DUP1 PUSH2 0x135 DUP4 PUSH2 0x1DB JUMP JUMPDEST SWAP2 SWAP1 POP SSTORE POP JUMP JUMPDEST PUSH1 0x0 DUP1 SLOAD SWAP1 DUP1 PUSH2 0x135 DUP4 PUSH2 0x1F2 JUMP JUMPDEST PUSH1 0x1 SLOAD PUSH1 0x1 PUSH1 0x1 PUSH1 0xA0 SHL SUB AND CALLER EQ PUSH2 0x1BF JUMPI PUSH1 0x40 MLOAD PUSH3 0x461BCD PUSH1 0xE5 SHL DUP2 MSTORE PUSH1 0x20 PUSH1 0x4 DUP3 ADD MSTORE PUSH1 0x31 PUSH1 0x24 DUP3 ADD MSTORE PUSH32 0x4F6E6C792074686520636F6E74726163742773206F776E65722063616E206361 PUSH1 0x44 DUP3 ADD MSTORE PUSH17 0x3636103A3434B990333AB731BA34B7B717 PUSH1 0x79 SHL PUSH1 0x64 DUP3 ADD MSTORE PUSH1 0x84 ADD PUSH2 0x11D JUMP JUMPDEST PUSH1 0x0 DUP1 SSTORE JUMP JUMPDEST PUSH4 0x4E487B71 PUSH1 0xE0 SHL PUSH1 0x0 MSTORE PUSH1 0x11 PUSH1 0x4 MSTORE PUSH1 0x24 PUSH1 0x0 REVERT JUMPDEST PUSH1 0x0 DUP2 PUSH2 0x1EA JUMPI PUSH2 0x1EA PUSH2 0x1C5 JUMP JUMPDEST POP PUSH1 0x0 NOT ADD SWAP1 JUMP JUMPDEST PUSH1 0x0 PUSH1 0x1 DUP3 ADD PUSH2 0x204 JUMPI PUSH2 0x204 PUSH2 0x1C5 JUMP JUMPDEST POP PUSH1 0x1 ADD SWAP1 JUMP INVALID LOG2 PUSH5 0x6970667358 0x22 SLT KECCAK256 0xB7 PUSH21 0xD4D6E2A0CE77B3AA4E89517DABB540C20402679B90 SWAP6 SHR 0x49 PUSH3 0xB761A SWAP1 0xE9 PUSH5 0x736F6C6343 STOP ADDMOD GT STOP CALLER "},"methodIdentifiers":{"counter()":"61bc221a","decrement()":"2baeceb7","getCounter()":"8ada066e","increment()":"d09de08a","owner()":"8da5cb5b","reset()":"d826f88f"}}}}}