{
  "_format": "hh-sol-artifact-1",
  "contractName": "Contract",
  "sourceName": "contracts/Contract.sol",
  "abi": [
    {
      "inputs": [],
      "stateMutability": "nonpayable",
      "type": "constructor"
    },
    {
      "inputs": [],
      "name": "counter",
      "outputs": [
        {
          "internalType": "uint256",
          "name": "",
          "type": "uint256"
        }
      ],
      "stateMutability": "view",
      "type": "function"
    },
    {
      "inputs": [],
      "name": "decrement",
      "outputs": [],
      "stateMutability": "nonpayable",
      "type": "function"
    },
    {
      "inputs": [],
      "name": "getCounter",
      "outputs": [
        {
          "internalType": "uint256",
          "name": "",
          "type": "uint256"
        }
      ],
      "stateMutability": "view",
      "type": "function"
    },
    {
      "inputs": [],
      "name": "increment",
      "outputs": [],
      "stateMutability": "nonpayable",
      "type": "function"
    },
    {
      "inputs": [],
      "name": "owner",
      "outputs": [
        {
          "internalType": "address",
          "name": "",
          "type": "address"
        }
      ],
      "stateMutability": "view",
      "type": "function"
    },
    {
      "inputs": [],
      "name": "reset",
      "outputs": [],
      "stateMutability": "nonpayable",
      "type": "function"
    }
  ],
  "bytecode": "0x608060405234801561001057600080fd5b5060008055600180546001600160a01b03191633179055610241806100366000396000f3fe608060405234801561001057600080fd5b50600436106100625760003560e01c80632baeceb71461006757806361bc221a146100715780638ada066e1461008d5780638da5cb5b14610095578063d09de08a146100c0578063d826f88f146100c8575b600080fd5b61006f6100d0565b005b61007a60005481565b6040519081526020015b60405180910390f35b60005461007a565b6001546100a8906001600160a01b031681565b6040516001600160a01b039091168152602001610084565b61006f61013c565b61006f61014b565b60008054116101265760405162461bcd60e51b815260206004820152601960248201527f636f756e7465722063616e2774206265206e656761746976650000000000000060448201526064015b60405180910390fd5b600080549080610135836101db565b9190505550565b600080549080610135836101f2565b6001546001600160a01b031633146101bf5760405162461bcd60e51b815260206004820152603160248201527f4f6e6c792074686520636f6e74726163742773206f776e65722063616e2063616044820152703636103a3434b990333ab731ba34b7b71760791b606482015260840161011d565b60008055565b634e487b7160e01b600052601160045260246000fd5b6000816101ea576101ea6101c5565b506000190190565b600060018201610204576102046101c5565b506001019056fea2646970667358221220b774d4d6e2a0ce77b3aa4e89517dabb540c20402679b90951c49620b761a90e964736f6c63430008110033",
  "linkReferences": {},
  "deployedLinkReferences": {}
}